{
  "contractName": "HPA",
  "abi": [
    {
      "inputs": [],
      "stateMutability": "nonpayable",
      "type": "constructor"
    },
    {
      "anonymous": false,
      "inputs": [
        {
          "indexed": false,
          "internalType": "address",
          "name": "user",
          "type": "address"
        }
      ],
      "name": "Certified",
      "type": "event"
    },
    {
      "inputs": [
        {
          "internalType": "address",
          "name": "",
          "type": "address"
        },
        {
          "internalType": "uint256",
          "name": "",
          "type": "uint256"
        }
      ],
      "name": "hpas",
      "outputs": [
        {
          "internalType": "uint256",
          "name": "id",
          "type": "uint256"
        },
        {
          "internalType": "string",
          "name": "firstName",
          "type": "string"
        },
        {
          "internalType": "string",
          "name": "subject",
          "type": "string"
        },
        {
          "internalType": "string",
          "name": "signature",
          "type": "string"
        }
      ],
      "stateMutability": "view",
      "type": "function",
      "constant": true
    },
    {
      "inputs": [
        {
          "internalType": "address",
          "name": "",
          "type": "address"
        }
      ],
      "name": "hpas_count",
      "outputs": [
        {
          "internalType": "uint256",
          "name": "",
          "type": "uint256"
        }
      ],
      "stateMutability": "view",
      "type": "function",
      "constant": true
    },
    {
      "inputs": [
        {
          "internalType": "uint256",
          "name": "id",
          "type": "uint256"
        },
        {
          "internalType": "string",
          "name": "firstName",
          "type": "string"
        },
        {
          "internalType": "string",
          "name": "subject",
          "type": "string"
        },
        {
          "internalType": "string",
          "name": "signature",
          "type": "string"
        }
      ],
      "name": "createHPA",
      "outputs": [],
      "stateMutability": "nonpayable",
      "type": "function"
    }
  ],
  "bytecode": "0x608060405234801561001057600080fd5b50610a59806100206000396000f3fe608060405234801561001057600080fd5b50600436106100415760003560e01c80638054319914610046578063e959f46d14610062578063f0b8edec14610095575b600080fd5b610060600480360381019061005b9190610690565b6100c5565b005b61007c600480360381019061007791906107a9565b610270565b60405161008c9493929190610880565b60405180910390f35b6100af60048036038101906100aa91906108da565b610445565b6040516100bc9190610907565b60405180910390f35b6000600160003373ffffffffffffffffffffffffffffffffffffffff1673ffffffffffffffffffffffffffffffffffffffff1681526020019081526020016000205490506040518060800160405280868152602001858152602001848152602001838152506000803373ffffffffffffffffffffffffffffffffffffffff1673ffffffffffffffffffffffffffffffffffffffff168152602001908152602001600020600083815260200190815260200160002060008201518160000155602082015181600101908051906020019061019f92919061045d565b5060408201518160020190805190602001906101bc92919061045d565b5060608201518160030190805190602001906101d992919061045d565b509050507fb1d5224adaebe0aa88e31db3ad3e6cc7b43db104950d0c1bdb73172b6d705d1c3360405161020c9190610931565b60405180910390a1600160003373ffffffffffffffffffffffffffffffffffffffff1673ffffffffffffffffffffffffffffffffffffffff16815260200190815260200160002060008154809291906102649061097b565b91905055505050505050565b6000602052816000526040600020602052806000526040600020600091509150508060000154908060010180546102a6906109f2565b80601f01602080910402602001604051908101604052809291908181526020018280546102d2906109f2565b801561031f5780601f106102f45761010080835404028352916020019161031f565b820191906000526020600020905b81548152906001019060200180831161030257829003601f168201915b505050505090806002018054610334906109f2565b80601f0160208091040260200160405190810160405280929190818152602001828054610360906109f2565b80156103ad5780601f10610382576101008083540402835291602001916103ad565b820191906000526020600020905b81548152906001019060200180831161039057829003601f168201915b5050505050908060030180546103c2906109f2565b80601f01602080910402602001604051908101604052809291908181526020018280546103ee906109f2565b801561043b5780601f106104105761010080835404028352916020019161043b565b820191906000526020600020905b81548152906001019060200180831161041e57829003601f168201915b5050505050905084565b60016020528060005260406000206000915090505481565b828054610469906109f2565b90600052602060002090601f01602090048101928261048b57600085556104d2565b82601f106104a457805160ff19168380011785556104d2565b828001600101855582156104d2579182015b828111156104d15782518255916020019190600101906104b6565b5b5090506104df91906104e3565b5090565b5b808211156104fc5760008160009055506001016104e4565b5090565b6000604051905090565b600080fd5b600080fd5b6000819050919050565b61052781610514565b811461053257600080fd5b50565b6000813590506105448161051e565b92915050565b600080fd5b600080fd5b6000601f19601f8301169050919050565b7f4e487b7100000000000000000000000000000000000000000000000000000000600052604160045260246000fd5b61059d82610554565b810181811067ffffffffffffffff821117156105bc576105bb610565565b5b80604052505050565b60006105cf610500565b90506105db8282610594565b919050565b600067ffffffffffffffff8211156105fb576105fa610565565b5b61060482610554565b9050602081019050919050565b82818337600083830152505050565b600061063361062e846105e0565b6105c5565b90508281526020810184848401111561064f5761064e61054f565b5b61065a848285610611565b509392505050565b600082601f8301126106775761067661054a565b5b8135610687848260208601610620565b91505092915050565b600080600080608085870312156106aa576106a961050a565b5b60006106b887828801610535565b945050602085013567ffffffffffffffff8111156106d9576106d861050f565b5b6106e587828801610662565b935050604085013567ffffffffffffffff8111156107065761070561050f565b5b61071287828801610662565b925050606085013567ffffffffffffffff8111156107335761073261050f565b5b61073f87828801610662565b91505092959194509250565b600073ffffffffffffffffffffffffffffffffffffffff82169050919050565b60006107768261074b565b9050919050565b6107868161076b565b811461079157600080fd5b50565b6000813590506107a38161077d565b92915050565b600080604083850312156107c0576107bf61050a565b5b60006107ce85828601610794565b92505060206107df85828601610535565b9150509250929050565b6107f281610514565b82525050565b600081519050919050565b600082825260208201905092915050565b60005b83811015610832578082015181840152602081019050610817565b83811115610841576000848401525b50505050565b6000610852826107f8565b61085c8185610803565b935061086c818560208601610814565b61087581610554565b840191505092915050565b600060808201905061089560008301876107e9565b81810360208301526108a78186610847565b905081810360408301526108bb8185610847565b905081810360608301526108cf8184610847565b905095945050505050565b6000602082840312156108f0576108ef61050a565b5b60006108fe84828501610794565b91505092915050565b600060208201905061091c60008301846107e9565b92915050565b61092b8161076b565b82525050565b60006020820190506109466000830184610922565b92915050565b7f4e487b7100000000000000000000000000000000000000000000000000000000600052601160045260246000fd5b600061098682610514565b91507fffffffffffffffffffffffffffffffffffffffffffffffffffffffffffffffff82036109b8576109b761094c565b5b600182019050919050565b7f4e487b7100000000000000000000000000000000000000000000000000000000600052602260045260246000fd5b60006002820490506001821680610a0a57607f821691505b602082108103610a1d57610a1c6109c3565b5b5091905056fea26469706673582212200b3d8165b696a30b347658998aef45ec616b0388965dfaade77bc06c8f3bf75864736f6c634300080e0033",
  "immutableReferences": {},
  "source": "// SPDX-License-Identifier: MIT\r\npragma solidity >=0.4.22 <0.9.0;\r\n\r\ncontract HPA  {\r\n\r\n    // struct PA {\r\n    //     uint256 paID;\r\n    //     string  paType;\r\n    //     bool isSigned;\r\n    //     bytes32 signedPA;\r\n    // }\r\n\r\n\r\n     struct PA {\r\n        uint id;\r\n        string firstName;\r\n        string subject;\r\n        string signature;\r\n    }\r\n\r\n\r\n    // trigger event when a pa is certified\r\n    event Certified(address user);\r\n    \r\n    // gives each structure a unique ID\r\n    // mapping (address => mapping(uint => PA)) public certified_hpas;\r\n    // mapping (address => uint) public hpas_count;\r\n    \r\n    mapping (address => mapping(uint => PA)) public hpas;\r\n    mapping (address => uint) public hpas_count;\r\n    // constructor is only called once\r\n    \r\n    constructor() {\r\n        \r\n    }\r\n\r\n    // get certifiedHPA of a user(address already set)\r\n    // function getCertifiedHPA(uint _id) public view returns (PA memory hpa) {\r\n    //     return certified_hpas[msg.sender][_id];\r\n    // }\r\n\r\n    // function createCertifiedHPA(\r\n    //     string memory  _paType,\r\n    //     bool isSigned,\r\n    //     bytes32 _signedPA\r\n    //    // address certifier\r\n    //    ) \r\n    // public {\r\n    //    uint hpa_count = hpas_count[msg.sender];\r\n    //    certified_hpas[msg.sender][hpa_count] = PA(hpa_count,_paType,isSigned, _signedPA);\r\n    //    emit Certified(msg.sender);\r\n    //    hpas_count[msg.sender]++;\r\n    // }\r\n\r\n    function createHPA(uint id, string memory firstName, string memory subject, string memory signature) public {\r\n            uint hpa_count = hpas_count[msg.sender];\r\n            hpas[msg.sender][hpa_count] = PA(id, firstName, subject, signature);\r\n            emit Certified(msg.sender);\r\n            hpas_count[msg.sender]++;\r\n        }\r\n\r\n   \r\n}\r\n\r\n",
  "sourcePath": "D:\\PASS_Research_Summer_2022\\truffle\\contracts\\HPA.sol",
  "compiler": {
    "name": "solc",
    "version": "0.8.14+commit.80d49f37.Emscripten.clang"
  },
  "schemaVersion": "3.4.4",
  "updatedAt": "2022-07-19T00:02:32.436Z",
  "networkType": "ethereum",
  "devdoc": {
    "kind": "dev",
    "methods": {},
    "version": 1
  },
  "userdoc": {
    "kind": "user",
    "methods": {},
    "version": 1
  }
}