{
  "contractName": "HPA",
  "abi": [
    {
      "inputs": [],
      "stateMutability": "nonpayable",
      "type": "constructor"
    },
    {
      "anonymous": false,
      "inputs": [
        {
          "indexed": false,
          "internalType": "address",
          "name": "user",
          "type": "address"
        }
      ],
      "name": "Certified",
      "type": "event"
    },
    {
      "inputs": [
        {
          "internalType": "address",
          "name": "",
          "type": "address"
        },
        {
          "internalType": "uint256",
          "name": "",
          "type": "uint256"
        }
      ],
      "name": "certified_hpas",
      "outputs": [
        {
          "internalType": "uint256",
          "name": "paID",
          "type": "uint256"
        },
        {
          "internalType": "string",
          "name": "paType",
          "type": "string"
        },
        {
          "internalType": "bool",
          "name": "isSigned",
          "type": "bool"
        },
        {
          "internalType": "bytes32",
          "name": "signedPA",
          "type": "bytes32"
        }
      ],
      "stateMutability": "view",
      "type": "function",
      "constant": true
    },
    {
      "inputs": [
        {
          "internalType": "address",
          "name": "",
          "type": "address"
        }
      ],
      "name": "hpas_count",
      "outputs": [
        {
          "internalType": "uint256",
          "name": "",
          "type": "uint256"
        }
      ],
      "stateMutability": "view",
      "type": "function",
      "constant": true
    },
    {
      "inputs": [
        {
          "internalType": "address",
          "name": "",
          "type": "address"
        },
        {
          "internalType": "uint256",
          "name": "",
          "type": "uint256"
        }
      ],
      "name": "simple_hpas",
      "outputs": [
        {
          "internalType": "uint256",
          "name": "id",
          "type": "uint256"
        },
        {
          "internalType": "string",
          "name": "firstName",
          "type": "string"
        },
        {
          "internalType": "string",
          "name": "subject",
          "type": "string"
        },
        {
          "internalType": "string",
          "name": "signature",
          "type": "string"
        }
      ],
      "stateMutability": "view",
      "type": "function",
      "constant": true
    },
    {
      "inputs": [
        {
          "internalType": "address",
          "name": "",
          "type": "address"
        }
      ],
      "name": "simple_hpas_count",
      "outputs": [
        {
          "internalType": "uint256",
          "name": "",
          "type": "uint256"
        }
      ],
      "stateMutability": "view",
      "type": "function",
      "constant": true
    },
    {
      "inputs": [
        {
          "internalType": "uint256",
          "name": "_id",
          "type": "uint256"
        }
      ],
      "name": "getCertifiedHPA",
      "outputs": [
        {
          "components": [
            {
              "internalType": "uint256",
              "name": "paID",
              "type": "uint256"
            },
            {
              "internalType": "string",
              "name": "paType",
              "type": "string"
            },
            {
              "internalType": "bool",
              "name": "isSigned",
              "type": "bool"
            },
            {
              "internalType": "bytes32",
              "name": "signedPA",
              "type": "bytes32"
            }
          ],
          "internalType": "struct HPA.PA",
          "name": "hpa",
          "type": "tuple"
        }
      ],
      "stateMutability": "view",
      "type": "function",
      "constant": true
    },
    {
      "inputs": [
        {
          "internalType": "string",
          "name": "_paType",
          "type": "string"
        },
        {
          "internalType": "bool",
          "name": "isSigned",
          "type": "bool"
        },
        {
          "internalType": "bytes32",
          "name": "_signedPA",
          "type": "bytes32"
        }
      ],
      "name": "createCertifiedHPA",
      "outputs": [],
      "stateMutability": "nonpayable",
      "type": "function"
    },
    {
      "inputs": [
        {
          "internalType": "uint256",
          "name": "id",
          "type": "uint256"
        },
        {
          "internalType": "string",
          "name": "firstName",
          "type": "string"
        },
        {
          "internalType": "string",
          "name": "subject",
          "type": "string"
        },
        {
          "internalType": "string",
          "name": "signature",
          "type": "string"
        }
      ],
      "name": "createSimpleHPA",
      "outputs": [],
      "stateMutability": "nonpayable",
      "type": "function"
    }
  ],
  "bytecode": "0x608060405234801561001057600080fd5b50611192806100206000396000f3fe608060405234801561001057600080fd5b506004361061007d5760003560e01c8063a3dd764c1161005b578063a3dd764c146100fe578063aa9ae1fe1461011a578063d67965e71461014d578063f0b8edec146101805761007d565b806301eb508a146100825780631aff9b16146100b25780636676e56b146100e2575b600080fd5b61009c60048036038101906100979190610a3b565b6101b0565b6040516100a99190610a81565b60405180910390f35b6100cc60048036038101906100c79190610ac8565b6101c8565b6040516100d99190610c34565b60405180910390f35b6100fc60048036038101906100f79190610d8b565b6102f2565b005b61011860048036038101906101139190610e9e565b61049e565b005b610134600480360381019061012f9190610f0d565b61063a565b6040516101449493929190610f97565b60405180910390f35b61016760048036038101906101629190610f0d565b61080f565b604051610177949392919061100f565b60405180910390f35b61019a60048036038101906101959190610a3b565b6108e1565b6040516101a79190610a81565b60405180910390f35b60036020528060005260406000206000915090505481565b6101d06108f9565b6000803373ffffffffffffffffffffffffffffffffffffffff1673ffffffffffffffffffffffffffffffffffffffff1681526020019081526020016000206000838152602001908152602001600020604051806080016040529081600082015481526020016001820180546102449061108a565b80601f01602080910402602001604051908101604052809291908181526020018280546102709061108a565b80156102bd5780601f10610292576101008083540402835291602001916102bd565b820191906000526020600020905b8154815290600101906020018083116102a057829003601f168201915b505050505081526020016002820160009054906101000a900460ff161515151581526020016003820154815250509050919050565b6000600360003373ffffffffffffffffffffffffffffffffffffffff1673ffffffffffffffffffffffffffffffffffffffff168152602001908152602001600020549050604051806080016040528086815260200185815260200184815260200183815250600260003373ffffffffffffffffffffffffffffffffffffffff1673ffffffffffffffffffffffffffffffffffffffff16815260200190815260200160002060008381526020019081526020016000206000820151816000015560208201518160010190805190602001906103cd929190610926565b5060408201518160020190805190602001906103ea929190610926565b506060820151816003019080519060200190610407929190610926565b509050507fb1d5224adaebe0aa88e31db3ad3e6cc7b43db104950d0c1bdb73172b6d705d1c3360405161043a91906110ca565b60405180910390a1600360003373ffffffffffffffffffffffffffffffffffffffff1673ffffffffffffffffffffffffffffffffffffffff168152602001908152602001600020600081548092919061049290611114565b91905055505050505050565b6000600160003373ffffffffffffffffffffffffffffffffffffffff1673ffffffffffffffffffffffffffffffffffffffff16815260200190815260200160002054905060405180608001604052808281526020018581526020018415158152602001838152506000803373ffffffffffffffffffffffffffffffffffffffff1673ffffffffffffffffffffffffffffffffffffffff168152602001908152602001600020600083815260200190815260200160002060008201518160000155602082015181600101908051906020019061057a929190610926565b5060408201518160020160006101000a81548160ff021916908315150217905550606082015181600301559050507fb1d5224adaebe0aa88e31db3ad3e6cc7b43db104950d0c1bdb73172b6d705d1c336040516105d791906110ca565b60405180910390a1600160003373ffffffffffffffffffffffffffffffffffffffff1673ffffffffffffffffffffffffffffffffffffffff168152602001908152602001600020600081548092919061062f90611114565b919050555050505050565b6002602052816000526040600020602052806000526040600020600091509150508060000154908060010180546106709061108a565b80601f016020809104026020016040519081016040528092919081815260200182805461069c9061108a565b80156106e95780601f106106be576101008083540402835291602001916106e9565b820191906000526020600020905b8154815290600101906020018083116106cc57829003601f168201915b5050505050908060020180546106fe9061108a565b80601f016020809104026020016040519081016040528092919081815260200182805461072a9061108a565b80156107775780601f1061074c57610100808354040283529160200191610777565b820191906000526020600020905b81548152906001019060200180831161075a57829003601f168201915b50505050509080600301805461078c9061108a565b80601f01602080910402602001604051908101604052809291908181526020018280546107b89061108a565b80156108055780601f106107da57610100808354040283529160200191610805565b820191906000526020600020905b8154815290600101906020018083116107e857829003601f168201915b5050505050905084565b6000602052816000526040600020602052806000526040600020600091509150508060000154908060010180546108459061108a565b80601f01602080910402602001604051908101604052809291908181526020018280546108719061108a565b80156108be5780601f10610893576101008083540402835291602001916108be565b820191906000526020600020905b8154815290600101906020018083116108a157829003601f168201915b5050505050908060020160009054906101000a900460ff16908060030154905084565b60016020528060005260406000206000915090505481565b60405180608001604052806000815260200160608152602001600015158152602001600080191681525090565b8280546109329061108a565b90600052602060002090601f016020900481019282610954576000855561099b565b82601f1061096d57805160ff191683800117855561099b565b8280016001018555821561099b579182015b8281111561099a57825182559160200191906001019061097f565b5b5090506109a891906109ac565b5090565b5b808211156109c55760008160009055506001016109ad565b5090565b6000604051905090565b600080fd5b600080fd5b600073ffffffffffffffffffffffffffffffffffffffff82169050919050565b6000610a08826109dd565b9050919050565b610a18816109fd565b8114610a2357600080fd5b50565b600081359050610a3581610a0f565b92915050565b600060208284031215610a5157610a506109d3565b5b6000610a5f84828501610a26565b91505092915050565b6000819050919050565b610a7b81610a68565b82525050565b6000602082019050610a966000830184610a72565b92915050565b610aa581610a68565b8114610ab057600080fd5b50565b600081359050610ac281610a9c565b92915050565b600060208284031215610ade57610add6109d3565b5b6000610aec84828501610ab3565b91505092915050565b610afe81610a68565b82525050565b600081519050919050565b600082825260208201905092915050565b60005b83811015610b3e578082015181840152602081019050610b23565b83811115610b4d576000848401525b50505050565b6000601f19601f8301169050919050565b6000610b6f82610b04565b610b798185610b0f565b9350610b89818560208601610b20565b610b9281610b53565b840191505092915050565b60008115159050919050565b610bb281610b9d565b82525050565b6000819050919050565b610bcb81610bb8565b82525050565b6000608083016000830151610be96000860182610af5565b5060208301518482036020860152610c018282610b64565b9150506040830151610c166040860182610ba9565b506060830151610c296060860182610bc2565b508091505092915050565b60006020820190508181036000830152610c4e8184610bd1565b905092915050565b600080fd5b600080fd5b7f4e487b7100000000000000000000000000000000000000000000000000000000600052604160045260246000fd5b610c9882610b53565b810181811067ffffffffffffffff82111715610cb757610cb6610c60565b5b80604052505050565b6000610cca6109c9565b9050610cd68282610c8f565b919050565b600067ffffffffffffffff821115610cf657610cf5610c60565b5b610cff82610b53565b9050602081019050919050565b82818337600083830152505050565b6000610d2e610d2984610cdb565b610cc0565b905082815260208101848484011115610d4a57610d49610c5b565b5b610d55848285610d0c565b509392505050565b600082601f830112610d7257610d71610c56565b5b8135610d82848260208601610d1b565b91505092915050565b60008060008060808587031215610da557610da46109d3565b5b6000610db387828801610ab3565b945050602085013567ffffffffffffffff811115610dd457610dd36109d8565b5b610de087828801610d5d565b935050604085013567ffffffffffffffff811115610e0157610e006109d8565b5b610e0d87828801610d5d565b925050606085013567ffffffffffffffff811115610e2e57610e2d6109d8565b5b610e3a87828801610d5d565b91505092959194509250565b610e4f81610b9d565b8114610e5a57600080fd5b50565b600081359050610e6c81610e46565b92915050565b610e7b81610bb8565b8114610e8657600080fd5b50565b600081359050610e9881610e72565b92915050565b600080600060608486031215610eb757610eb66109d3565b5b600084013567ffffffffffffffff811115610ed557610ed46109d8565b5b610ee186828701610d5d565b9350506020610ef286828701610e5d565b9250506040610f0386828701610e89565b9150509250925092565b60008060408385031215610f2457610f236109d3565b5b6000610f3285828601610a26565b9250506020610f4385828601610ab3565b9150509250929050565b600082825260208201905092915050565b6000610f6982610b04565b610f738185610f4d565b9350610f83818560208601610b20565b610f8c81610b53565b840191505092915050565b6000608082019050610fac6000830187610a72565b8181036020830152610fbe8186610f5e565b90508181036040830152610fd28185610f5e565b90508181036060830152610fe68184610f5e565b905095945050505050565b610ffa81610b9d565b82525050565b61100981610bb8565b82525050565b60006080820190506110246000830187610a72565b81810360208301526110368186610f5e565b90506110456040830185610ff1565b6110526060830184611000565b95945050505050565b7f4e487b7100000000000000000000000000000000000000000000000000000000600052602260045260246000fd5b600060028204905060018216806110a257607f821691505b6020821081036110b5576110b461105b565b5b50919050565b6110c4816109fd565b82525050565b60006020820190506110df60008301846110bb565b92915050565b7f4e487b7100000000000000000000000000000000000000000000000000000000600052601160045260246000fd5b600061111f82610a68565b91507fffffffffffffffffffffffffffffffffffffffffffffffffffffffffffffffff8203611151576111506110e5565b5b60018201905091905056fea2646970667358221220fe1a102f6c3d87b12c75687814c1b02ad2ff1f7cee67d451804e801674dfda7664736f6c634300080e0033",
  "immutableReferences": {},
  "source": "// SPDX-License-Identifier: MIT\r\npragma solidity >=0.4.22 <0.9.0;\r\n\r\ncontract HPA  {\r\n\r\n    struct PA {\r\n        uint256 paID;\r\n        string  paType;\r\n        bool isSigned;\r\n        bytes32 signedPA;\r\n    }\r\n\r\n\r\n     struct SimplePA {\r\n        uint id;\r\n        string firstName;\r\n        string subject;\r\n        string signature;\r\n    }\r\n\r\n\r\n    // trigger event when a pa is certified\r\n    event Certified(address user);\r\n    \r\n    // gives each structure a unique ID\r\n    mapping (address => mapping(uint => PA)) public certified_hpas;\r\n    mapping (address => uint) public hpas_count;\r\n    \r\n    mapping (address => mapping(uint => SimplePA)) public simple_hpas;\r\n    mapping (address => uint) public simple_hpas_count;\r\n    // constructor is only called once\r\n    constructor() {\r\n        \r\n    }\r\n\r\n    // get certifiedHPA of a user(address already set)\r\n    function getCertifiedHPA(uint _id) public view returns (PA memory hpa) {\r\n        return certified_hpas[msg.sender][_id];\r\n    }\r\n\r\n    function createCertifiedHPA(\r\n        string memory  _paType,\r\n        bool isSigned,\r\n        bytes32 _signedPA\r\n       // address certifier\r\n       ) \r\n    public {\r\n       uint hpa_count = hpas_count[msg.sender];\r\n       certified_hpas[msg.sender][hpa_count] = PA(hpa_count,_paType,isSigned, _signedPA);\r\n       emit Certified(msg.sender);\r\n       hpas_count[msg.sender]++;\r\n    }\r\n\r\n    function createSimpleHPA(uint256 id, string memory firstName, string memory subject, string memory signature) public {\r\n            uint simple_hpa_count = simple_hpas_count[msg.sender];\r\n            simple_hpas[msg.sender][simple_hpa_count] = SimplePA(id, firstName, subject, signature);\r\n            emit Certified(msg.sender);\r\n            simple_hpas_count[msg.sender]++;\r\n        }\r\n\r\n   \r\n}\r\n\r\n",
  "sourcePath": "D:\\PASS_Research_Summer_2022\\truffle\\contracts\\HPA.sol",
  "compiler": {
    "name": "solc",
    "version": "0.8.14+commit.80d49f37.Emscripten.clang"
  },
  "schemaVersion": "3.4.4",
  "updatedAt": "2022-07-17T00:59:59.043Z",
  "networkType": "ethereum",
  "devdoc": {
    "kind": "dev",
    "methods": {},
    "version": 1
  },
  "userdoc": {
    "kind": "user",
    "methods": {},
    "version": 1
  }
}