{
  "contractName": "HPA",
  "abi": [
    {
      "inputs": [],
      "stateMutability": "nonpayable",
      "type": "constructor"
    },
    {
      "anonymous": false,
      "inputs": [
        {
          "indexed": false,
          "internalType": "address",
          "name": "user",
          "type": "address"
        }
      ],
      "name": "Certified",
      "type": "event"
    },
    {
      "inputs": [
        {
          "internalType": "address",
          "name": "",
          "type": "address"
        },
        {
          "internalType": "uint256",
          "name": "",
          "type": "uint256"
        }
      ],
      "name": "certified_hpas",
      "outputs": [
        {
          "internalType": "uint256",
          "name": "paID",
          "type": "uint256"
        },
        {
          "internalType": "string",
          "name": "paType",
          "type": "string"
        },
        {
          "internalType": "bool",
          "name": "isSigned",
          "type": "bool"
        },
        {
          "internalType": "bytes32",
          "name": "signedPA",
          "type": "bytes32"
        }
      ],
      "stateMutability": "view",
      "type": "function",
      "constant": true
    },
    {
      "inputs": [
        {
          "internalType": "address",
          "name": "",
          "type": "address"
        }
      ],
      "name": "hpas_count",
      "outputs": [
        {
          "internalType": "uint256",
          "name": "",
          "type": "uint256"
        }
      ],
      "stateMutability": "view",
      "type": "function",
      "constant": true
    },
    {
      "inputs": [
        {
          "internalType": "address",
          "name": "",
          "type": "address"
        },
        {
          "internalType": "uint256",
          "name": "",
          "type": "uint256"
        }
      ],
      "name": "simple_hpas",
      "outputs": [
        {
          "internalType": "string",
          "name": "signature",
          "type": "string"
        }
      ],
      "stateMutability": "view",
      "type": "function",
      "constant": true
    },
    {
      "inputs": [
        {
          "internalType": "address",
          "name": "",
          "type": "address"
        }
      ],
      "name": "simple_hpas_count",
      "outputs": [
        {
          "internalType": "uint256",
          "name": "",
          "type": "uint256"
        }
      ],
      "stateMutability": "view",
      "type": "function",
      "constant": true
    },
    {
      "inputs": [
        {
          "internalType": "uint256",
          "name": "_id",
          "type": "uint256"
        }
      ],
      "name": "getCertifiedHPA",
      "outputs": [
        {
          "components": [
            {
              "internalType": "uint256",
              "name": "paID",
              "type": "uint256"
            },
            {
              "internalType": "string",
              "name": "paType",
              "type": "string"
            },
            {
              "internalType": "bool",
              "name": "isSigned",
              "type": "bool"
            },
            {
              "internalType": "bytes32",
              "name": "signedPA",
              "type": "bytes32"
            }
          ],
          "internalType": "struct HPA.PA",
          "name": "hpa",
          "type": "tuple"
        }
      ],
      "stateMutability": "view",
      "type": "function",
      "constant": true
    },
    {
      "inputs": [
        {
          "internalType": "string",
          "name": "_paType",
          "type": "string"
        },
        {
          "internalType": "bool",
          "name": "isSigned",
          "type": "bool"
        },
        {
          "internalType": "bytes32",
          "name": "_signedPA",
          "type": "bytes32"
        }
      ],
      "name": "createCertifiedHPA",
      "outputs": [],
      "stateMutability": "nonpayable",
      "type": "function"
    },
    {
      "inputs": [
        {
          "internalType": "string",
          "name": "signature",
          "type": "string"
        }
      ],
      "name": "createSimpleHPA",
      "outputs": [],
      "stateMutability": "nonpayable",
      "type": "function"
    }
  ],
  "bytecode": "0x608060405234801561001057600080fd5b50610f6a806100206000396000f3fe608060405234801561001057600080fd5b506004361061007d5760003560e01c8063a3dd764c1161005b578063a3dd764c146100fe578063aa9ae1fe1461011a578063d67965e71461014a578063f0b8edec1461017d5761007d565b806301eb508a146100825780631aff9b16146100b257806399592c59146100e2575b600080fd5b61009c600480360381019061009791906108bd565b6101ad565b6040516100a99190610903565b60405180910390f35b6100cc60048036038101906100c7919061094a565b6101c5565b6040516100d99190610ab6565b60405180910390f35b6100fc60048036038101906100f79190610c0d565b6102ef565b005b61011860048036038101906101139190610cae565b610442565b005b610134600480360381019061012f9190610d1d565b6105de565b6040516101419190610da7565b60405180910390f35b610164600480360381019061015f9190610d1d565b610691565b6040516101749493929190610de7565b60405180910390f35b610197600480360381019061019291906108bd565b610763565b6040516101a49190610903565b60405180910390f35b60036020528060005260406000206000915090505481565b6101cd61077b565b6000803373ffffffffffffffffffffffffffffffffffffffff1673ffffffffffffffffffffffffffffffffffffffff16815260200190815260200160002060008381526020019081526020016000206040518060800160405290816000820154815260200160018201805461024190610e62565b80601f016020809104026020016040519081016040528092919081815260200182805461026d90610e62565b80156102ba5780601f1061028f576101008083540402835291602001916102ba565b820191906000526020600020905b81548152906001019060200180831161029d57829003601f168201915b505050505081526020016002820160009054906101000a900460ff161515151581526020016003820154815250509050919050565b6000600360003373ffffffffffffffffffffffffffffffffffffffff1673ffffffffffffffffffffffffffffffffffffffff168152602001908152602001600020549050604051806020016040528083815250600260003373ffffffffffffffffffffffffffffffffffffffff1673ffffffffffffffffffffffffffffffffffffffff168152602001908152602001600020600083815260200190815260200160002060008201518160000190805190602001906103ae9291906107a8565b509050507fb1d5224adaebe0aa88e31db3ad3e6cc7b43db104950d0c1bdb73172b6d705d1c336040516103e19190610ea2565b60405180910390a1600360003373ffffffffffffffffffffffffffffffffffffffff1673ffffffffffffffffffffffffffffffffffffffff168152602001908152602001600020600081548092919061043990610eec565b91905055505050565b6000600160003373ffffffffffffffffffffffffffffffffffffffff1673ffffffffffffffffffffffffffffffffffffffff16815260200190815260200160002054905060405180608001604052808281526020018581526020018415158152602001838152506000803373ffffffffffffffffffffffffffffffffffffffff1673ffffffffffffffffffffffffffffffffffffffff168152602001908152602001600020600083815260200190815260200160002060008201518160000155602082015181600101908051906020019061051e9291906107a8565b5060408201518160020160006101000a81548160ff021916908315150217905550606082015181600301559050507fb1d5224adaebe0aa88e31db3ad3e6cc7b43db104950d0c1bdb73172b6d705d1c3360405161057b9190610ea2565b60405180910390a1600160003373ffffffffffffffffffffffffffffffffffffffff1673ffffffffffffffffffffffffffffffffffffffff16815260200190815260200160002060008154809291906105d390610eec565b919050555050505050565b60026020528160005260406000206020528060005260406000206000915091505080600001805461060e90610e62565b80601f016020809104026020016040519081016040528092919081815260200182805461063a90610e62565b80156106875780601f1061065c57610100808354040283529160200191610687565b820191906000526020600020905b81548152906001019060200180831161066a57829003601f168201915b5050505050905081565b6000602052816000526040600020602052806000526040600020600091509150508060000154908060010180546106c790610e62565b80601f01602080910402602001604051908101604052809291908181526020018280546106f390610e62565b80156107405780601f1061071557610100808354040283529160200191610740565b820191906000526020600020905b81548152906001019060200180831161072357829003601f168201915b5050505050908060020160009054906101000a900460ff16908060030154905084565b60016020528060005260406000206000915090505481565b60405180608001604052806000815260200160608152602001600015158152602001600080191681525090565b8280546107b490610e62565b90600052602060002090601f0160209004810192826107d6576000855561081d565b82601f106107ef57805160ff191683800117855561081d565b8280016001018555821561081d579182015b8281111561081c578251825591602001919060010190610801565b5b50905061082a919061082e565b5090565b5b8082111561084757600081600090555060010161082f565b5090565b6000604051905090565b600080fd5b600080fd5b600073ffffffffffffffffffffffffffffffffffffffff82169050919050565b600061088a8261085f565b9050919050565b61089a8161087f565b81146108a557600080fd5b50565b6000813590506108b781610891565b92915050565b6000602082840312156108d3576108d2610855565b5b60006108e1848285016108a8565b91505092915050565b6000819050919050565b6108fd816108ea565b82525050565b600060208201905061091860008301846108f4565b92915050565b610927816108ea565b811461093257600080fd5b50565b6000813590506109448161091e565b92915050565b6000602082840312156109605761095f610855565b5b600061096e84828501610935565b91505092915050565b610980816108ea565b82525050565b600081519050919050565b600082825260208201905092915050565b60005b838110156109c05780820151818401526020810190506109a5565b838111156109cf576000848401525b50505050565b6000601f19601f8301169050919050565b60006109f182610986565b6109fb8185610991565b9350610a0b8185602086016109a2565b610a14816109d5565b840191505092915050565b60008115159050919050565b610a3481610a1f565b82525050565b6000819050919050565b610a4d81610a3a565b82525050565b6000608083016000830151610a6b6000860182610977565b5060208301518482036020860152610a8382826109e6565b9150506040830151610a986040860182610a2b565b506060830151610aab6060860182610a44565b508091505092915050565b60006020820190508181036000830152610ad08184610a53565b905092915050565b600080fd5b600080fd5b7f4e487b7100000000000000000000000000000000000000000000000000000000600052604160045260246000fd5b610b1a826109d5565b810181811067ffffffffffffffff82111715610b3957610b38610ae2565b5b80604052505050565b6000610b4c61084b565b9050610b588282610b11565b919050565b600067ffffffffffffffff821115610b7857610b77610ae2565b5b610b81826109d5565b9050602081019050919050565b82818337600083830152505050565b6000610bb0610bab84610b5d565b610b42565b905082815260208101848484011115610bcc57610bcb610add565b5b610bd7848285610b8e565b509392505050565b600082601f830112610bf457610bf3610ad8565b5b8135610c04848260208601610b9d565b91505092915050565b600060208284031215610c2357610c22610855565b5b600082013567ffffffffffffffff811115610c4157610c4061085a565b5b610c4d84828501610bdf565b91505092915050565b610c5f81610a1f565b8114610c6a57600080fd5b50565b600081359050610c7c81610c56565b92915050565b610c8b81610a3a565b8114610c9657600080fd5b50565b600081359050610ca881610c82565b92915050565b600080600060608486031215610cc757610cc6610855565b5b600084013567ffffffffffffffff811115610ce557610ce461085a565b5b610cf186828701610bdf565b9350506020610d0286828701610c6d565b9250506040610d1386828701610c99565b9150509250925092565b60008060408385031215610d3457610d33610855565b5b6000610d42858286016108a8565b9250506020610d5385828601610935565b9150509250929050565b600082825260208201905092915050565b6000610d7982610986565b610d838185610d5d565b9350610d938185602086016109a2565b610d9c816109d5565b840191505092915050565b60006020820190508181036000830152610dc18184610d6e565b905092915050565b610dd281610a1f565b82525050565b610de181610a3a565b82525050565b6000608082019050610dfc60008301876108f4565b8181036020830152610e0e8186610d6e565b9050610e1d6040830185610dc9565b610e2a6060830184610dd8565b95945050505050565b7f4e487b7100000000000000000000000000000000000000000000000000000000600052602260045260246000fd5b60006002820490506001821680610e7a57607f821691505b602082108103610e8d57610e8c610e33565b5b50919050565b610e9c8161087f565b82525050565b6000602082019050610eb76000830184610e93565b92915050565b7f4e487b7100000000000000000000000000000000000000000000000000000000600052601160045260246000fd5b6000610ef7826108ea565b91507fffffffffffffffffffffffffffffffffffffffffffffffffffffffffffffffff8203610f2957610f28610ebd565b5b60018201905091905056fea26469706673582212202bc0cf5c53c6d3b21cf3b67874516d858b1cddc2fe23e20b22158afc84c3e07464736f6c634300080e0033",
  "immutableReferences": {},
  "source": "// SPDX-License-Identifier: MIT\r\npragma solidity >=0.4.22 <0.9.0;\r\n\r\ncontract HPA  {\r\n\r\n    struct PA {\r\n        uint256 paID;\r\n        string  paType;\r\n        bool isSigned;\r\n        bytes32 signedPA;\r\n    }\r\n\r\n\r\n     struct SimplePA {\r\n        string signature;\r\n    }\r\n\r\n\r\n    // trigger event when a pa is certified\r\n    event Certified(address user);\r\n    \r\n    // gives each structure a unique ID\r\n    mapping (address => mapping(uint => PA)) public certified_hpas;\r\n    mapping (address => uint) public hpas_count;\r\n    \r\n    mapping (address => mapping(uint => SimplePA)) public simple_hpas;\r\n    mapping (address => uint) public simple_hpas_count;\r\n    // constructor is only called once\r\n    constructor() {\r\n        \r\n    }\r\n\r\n    // get certifiedHPA of a user(address already set)\r\n    function getCertifiedHPA(uint _id) public view returns (PA memory hpa) {\r\n        return certified_hpas[msg.sender][_id];\r\n    }\r\n\r\n    function createCertifiedHPA(\r\n        string memory  _paType,\r\n        bool isSigned,\r\n        bytes32 _signedPA\r\n       // address certifier\r\n       ) \r\n    public {\r\n       uint hpa_count = hpas_count[msg.sender];\r\n       certified_hpas[msg.sender][hpa_count] = PA(hpa_count,_paType,isSigned, _signedPA);\r\n       emit Certified(msg.sender);\r\n       hpas_count[msg.sender]++;\r\n    }\r\n\r\n    function createSimpleHPA(string memory signature) public {\r\n            uint simple_hpa_count = simple_hpas_count[msg.sender];\r\n            simple_hpas[msg.sender][simple_hpa_count] = SimplePA(signature);\r\n            emit Certified(msg.sender);\r\n            simple_hpas_count[msg.sender]++;\r\n        }\r\n\r\n}\r\n\r\n",
  "sourcePath": "D:\\PASS_Research_Summer_2022\\truffle\\contracts\\HPA.sol",
  "compiler": {
    "name": "solc",
    "version": "0.8.14+commit.80d49f37.Emscripten.clang"
  },
  "schemaVersion": "3.4.4",
  "updatedAt": "2022-06-27T21:23:17.222Z",
  "networkType": "ethereum",
  "devdoc": {
    "kind": "dev",
    "methods": {},
    "version": 1
  },
  "userdoc": {
    "kind": "user",
    "methods": {},
    "version": 1
  }
}